:040000007EEF38F067
:106F8000E57FF67FDA7F010000000104056E010E47
:106F9000036E0550B80946EC38F0020E036E05503A
:106FA000B80946EC38F01200056E010E036E05506C
:106FB000C00946EC38F0020E036E0550C00946ECDD
:106FC00038F01200818A010E036E3F0E46EC38F055
:106FD000020E036E3F0E46EC38F0000ED4EC37F094
:106FE00012000F6E0DC006F0010E076E0F507EEC02
:106FF00039F00DC006F0010E076E0F507EEC39F02F
:107000000E6E0E50120001500302F3CF05F0F4CFC4
:1070100006F001500402F350062602500302F3501A
:10702000062605C001F006C002F01200026E956847
:10703000000E936E0204D8B48190020E0218D8B4E8
:1070400081928186819400F0818800F083CF01F0E5
:10705000819801BEF9D7818081821200000E0F0154
:10706000386F000E396F000E3A6F000E3B6F000E46
:107070003C6F000E956E000E936E92809282928409
:107080009286000E836E000E816E1200046E035015
:1070900016EC38F0000E936E0304D8B48190020E03
:1070A0000318D8B481928196819400F0818800F011
:1070B00004C083FF000E956E00F08198818081826C
:1070C0001200056E400E05600CD0010E036E0550D7
:1070D000400946EC38F0020E036E400E46EC38F0E4
:1070E0001200010E036E7F0E46EC38F0020E036EA6
:1070F0000550C00F400946EC38F01200800EF66EC5
:107100006F0EF76E000EF86E00EEADF010EE06F0AA
:107110000900F5CFEEFFE550E150FAE1860EF66E7C
:107120006F0EF76E000EF86E00EE3FF010EE06F0F8
:107130000900F5CFEEFFE550E150FAE1000EF86EE0
:1071400000014DEF3DF03FC001F040C002F041C0F2
:1071500003F042C004F06D0E056E4E0E066EC60EB4
:10716000076E410E086EF6EC38F001C03FF002C029
:1071700040F003C041F004C042F0390E3F26300E0B
:107180004022000E4122000E4222FF0E41140D6EDD
:107190007F0E42140E6E1200186E000E1A6E000E54
:1071A000196E11D0155019240C6E16C0F6FF17C0B9
:1071B000F7FF0800F5CF0DF0185079EC3AF0164AB9
:1071C000172A194A1A2A16C0F6FF17C0F7FF080037
:1071D000F5500A0AD8B4120016C0F6FF17C0F7FF20
:1071E0000800F5500009D8B41200DCD7000E096E73
:1071F000000E0A6E000E0B6E000E0C6E01A008D081
:107200000550092606500A2207500B2208500C226E
:10721000D8900536063607360836D8900432033241
:10722000023201320150021003100410D8A4E6D734
:1072300009C001F00AC002F00BC003F00CC004F05A
:107240001200086E400E066004D0000E0A6E010E99
:1072500003D0000E0A6E020E096E09C00BF0085032
:10726000C6EC37F0065061EC38F00B5016EC38F0F5
:10727000000E936E0B04D8B48190020E0B18D8B494
:1072800081928196818400F0818800F007C083FF9D
:10729000000E956E00F08198818081821200126E3E
:1072A00012C013F0146A1CD00DC015F0166A09D074
:1072B00015C006F0000E076E135021EC39F0154A88
:1072C000162A0E500F6E106A15500F5C1050800A6F
:1072D000116E1650800A1158D8B0EAD7134A142AF2
:1072E0000C500F6E106A13500F5C1050800A116E14
:1072F0001450800A1158D8A01200D6D7086E400E3C
:10730000066004D0000E0A6E010E03D0000E0A6E55
:10731000020E096E09C00CF00750D8B406D0085010
:10732000C6EC37F0065061EC38F00C5016EC38F033
:107330009568000E936E0C04D8B48190020E0C1860
:10734000D8B481928186818400F0818800F083CF57
:107350000BF08198818081820B5012001A6E1AC046
:1073600011F0D8901132D8901132D89011321150BA
:10737000186E196A1AC011F0070E1116010E126E5E
:10738000000E136E112A03D0D89012361336112E28
:10739000FBD7121C146E131C156E10C00DF0185084
:1073A000F1EC37F0116E1150166E176A10C006F02E
:1073B00014501614076E185021EC39F012001650B4
:1073C000D96EDA6A010ED926A3EC38F00DC00FF0A1
:1073D0000EC010F0000E126E290E116E41EC3AF044
:1073E0000F500A0FDF6E1650D96EDA6AA3EC38F030
:1073F0000DC00FF00EC010F0000E126E6A0E116E6E
:1074000041EC3AF00F50050FDF6E190E186E410E69
:10741000176E15C001F0170E026E48EC3CF012001A
:107420001A6E1AC011F0D8901132D8901132D8903B
:1074300011321150186E196A1AC011F0070E111688
:10744000010E126E000E136E112A03D0D890123660
:107450001336112EFBD712C014F013C015F010C054
:107460000DF01850F1EC37F0116E1150166E176ACE
:1074700010C006F014501610076E185021EC39F0A9
:107480001200000E146E10AE06D00F6C101ED8B095
:10749000102A010E146E12AE04D0116C121ED8B058
:1074A000122A11501210D8B418D0010E136E04D045
:1074B000D89011361236132A12AEFAD711500F5C3B
:1074C00012501058D8A004D011500F5E1250105A0C
:1074D000D89012321132132EF1D71450D8B404D0F0
:1074E0000F6C101ED8B0102A0FC00FF010C010F093
:1074F0001200106EE00E0D24016E026AFF0E0222D1
:10750000000E046E050E036E03EC38F001C011F09E
:1075100002C012F00C50050DF3CF0CF0000E146EEB
:10752000000E136EE10E1124F66E7D0E1220F76E22
:107530000800F5500E6E0F6A0CC006F00EC007F082
:10754000105021EC39F00C2A114A122A134A142A3D
:1075500014BEE8D7145005E1050E135CD8B0120034
:10756000E1D71200000E066E04AE06D0036C041EB6
:10757000D8B0042A010E066E02AE06D0016C021EBF
:10758000D8B0022A010E061A000E086E000E076E11
:1075900003500410D8B41CD0010E056E04D0D8904E
:1075A00003360436052A04AEFAD7D89007360836D3
:1075B0000350015C04500258D8A005D00350015E6E
:1075C0000450025A0780D89004320332052EEDD7BA
:1075D0000650D8B404D0076C081ED8B0082A07C0DB
:1075E00001F008C002F012000150D96EDA6A3E0EB6
:1075F000D926DF50036E13D00350020D0150F3243F
:10760000D96EDA6A0350020D0150F324E16EE26A8A
:10761000020EE126DECFE6FFDDCFE5FF032A0150B3
:10762000D96EDA6A3F0ED9260350DE5CD8A039D075
:10763000E3D70150D96EDA6A3E0ED926DF50020D2B
:107640000150F324D96EDA6A010ED926DF06120042
:107650000150D96EDA6A3E0ED926DF50020D015074
:10766000F324D96EDA6A010ED926DF2A12000150FE
:10767000D96EDA6A3E0ED926DF50020D0150F3248E
:10768000D96EDA6ADF2A12000150D96EDA6A3E0E2C
:10769000D926DF50020D0150F324D96EDA6ADF06D5
:1076A00012004450000AD8B4C4D7010AD8B4D0D7C5
:1076B000030AD8B4E9D7010AD8A41200D8D7396E82
:1076C00017AE15D015C00CF02D0E0D6E395079EC9B
:1076D0003AF0152A16C001F017C002F0FF0E046E32
:1076E000036803EC38F001C016F002C017F0000E7A
:1076F0003B6E000E3A6E16501710D8A426D0300EEE
:10770000196E3A4A3B2A21D03A50190FD96EDA6ADB
:1077100016C00FF017C010F0000E126E0A0E116E98
:1077200041EC3AF00F50300FDF6E3A4A3B2A16C058
:1077300001F017C002F0000E046E0A0E036EB2ECE8
:107740003AF001C016F002C017F017BE20D0175053
:10775000DBE11604D8A01BD0D7D73A06D8A03B0649
:107760003A50190FD96EDA6ADF50186E1850166E3B
:10777000176A15C00CF016C00DF0395079EC3AF0CC
:10778000152A7F0E156403D0392A000E156E3BBEF4
:1077900012003B50E2E13A04D8A01200DED7000EFE
:1077A0001E6E050E1D6E1DC010F00A0E10EC3AF094
:1077B0001D4A1E2A1EBEF7D71E5004E1790E1D5C1D
:1077C000D8A0F1D7000E206E050E1F6E1FC010F05E
:1077D0003C0E10EC3AF01F4A202A20BEF7D720506A
:1077E00004E1790E1F5CD8A0F1D7000E226E3C0E8A
:1077F000216E050E106E215010EC3AF02106D8A033
:10780000220622BE06D02250F4E10A0E215CD8B036
:10781000F0D7000E246E3C0E236E780E106E2350AF
:1078200010EC3AF02306D8A0240624BE06D024503B
:10783000F4E10A0E235CD8B0F0D7000E266E000EDD
:10784000256E2550050F066ED50E2524F66E7F0E8B
:107850002620F76E0800F5CF07F0000E21EC39F076
:10786000254A262A26BEEDD7265004E1050E255CC2
:10787000D8A0E7D7EE0E1B6E7F0E1C6E030E156EA2
:107880001BC016F01CC017F0000ECCEC38F0120034
:107890000150D96EDA6A400ED926DF50D8A427D01D
:1078A0000150D96EDA6A3F0ED926000EDF6E015004
:1078B000E16EE26A3E0EE126DFCFE7FF0250D96EAD
:1078C000DA6A0150E16EE26A3E0EE126E750020DEF
:1078D0000150F324E16EE26ADECFE6FFDDCFE5FF83
:1078E0000150D96EDA6A400ED926DF2A1200015003
:1078F000D96EDA6A3F0ED926DF50046E13D00450D9
:10790000020D0150F324D96EDA6A0450020D0150C1
:10791000F324E16EE26A020EE126DECFE6FFDDCF60
:10792000E5FF042A0150D96EDA6A3F0ED9260450C9
:10793000DE5CD8B0E4D70250D96EDA6A0150E16E4D
:10794000E26A3E0EE126E750020D0150F324E16E9B
:10795000E26ADECFE6FFDDCFE5FF0150D96EDA6ADD
:10796000400ED926DF2A0150D96EDA6A3F0ED92699
:10797000DF2A0150D96EDA6A400ED9261E0EDE18B3
:10798000D8A41200040E446E12000150D96EDA6AB7
:107990003E0ED926DF50020D0150F324D96EDA6A6B
:1079A000010ED9260A0EDE18D8B411D00150D96EB6
:1079B000DA6A3E0ED926DF50020D0150F324D96E4B
:1079C000DA6A010ED9263C0EDE18D8A402D0000EC9
:1079D00012000150D96EDA6A3E0ED926DF50020D30
:1079E0000150F324D96EDA6A050EDE18D8B4EFD749
:1079F0000150D96EDA6A3E0ED926DF50020D0150D1
:107A0000F324D96EDA6A780EDE18D8B4E0D70150C4
:107A1000D96EDA6A400ED926040EDF6002D0010E5C
:107A20001200030E046E2FD00150D96EDA6A3E0E9A
:107A3000D926DF50020D0150F324D96EDA6A010E07
:107A4000D9260450020D0150F324E16EE26A010EC2
:107A5000E126DE50E618D8A415D00150D96EDA6AB6
:107A60003E0ED926DF50020D0150F324D96EDA6A9A
:107A70000450020D0150F324E16EE26ADE50E61874
:107A8000D8B4A5D7042A0150D96EDA6A3F0ED92698
:107A90000450DE5CD8A0C3D7C7D72EEC38F0E2EC98
:107AA00037F0070E0C6E000E0D6E7F0E0E6E000E80
:107AB0004FEC39F0000ED4EC37F0CFEC3BF0000E79
:107AC0000001656F010E626F000E636F000EAC6FF8
:107AD0006C0E156E6A0E166EDFEC39F06AC010F08F
:107AE00000016B5110EC3AF00001AA51020DF35065
:107AF0006C0FD96EDA6ADF50106EAA51020DF3CF07
:107B00003CF0010E3C263C506C0FD96EDA6ADF5017
:107B100010EC3AF0000E0001616F000E606F80A063
:107B200007D000016551D8A403D0010E656F14D0B1
:107B300000016551D8B40AD06251D8B407D04404CA
:107B4000D8B402D0000E446E000E05D080B004D030
:107B5000000E656F010E626F80A202D0010E0BD085
:107B600080B20AD06351D8B407D04450D8B402D000
:107B7000010E446E000E636F80A606D0030E4418FB
:107B8000D8B402D0020E446E80A406D0020E44186F
:107B9000D8B402D0030E446E6C0E016EC5EC3CF0FE
:107BA000646F6451D8B494D0040E4418D8B490D003
:107BB000AA51020DF3CF3CF0010E3C263C506C0F55
:107BC000D96EDA6A6B51DE18D8A441D0AA51020DE1
:107BD000F3506C0FD96EDA6A6A51DE18D8A437D028
:107BE0006C0E016E6A0E026E48EC3CF0A3EC38F0AD
:107BF0000DC00FF00EC010F0000E126E330E116E9D
:107C000041EC3AF00F5000016B6FA3EC38F00DC05F
:107C10000FF00EC010F0000E126E740E116E41ECDB
:107C20003AF00F50FB0F00016A6F604B612B0B0E97
:107C3000156E60C016F061C017F0000E5FEC3BF0EF
:107C40006AC010F000016B5110EC3AF004D06C0ED9
:107C5000016EF4EC3AF00001AB51020DF3CF3CF0B1
:107C6000020E3C263C506C0FD96EDA6ADF50106E63
:107C7000AB51020DF3CF3DF0030E3D263D506C0F8E
:107C8000D96EDA6ADF50AEEC39F00001AA51020D6C
:107C9000F3506C0FD96EDA6ADF50106EAA51020DE4
:107CA000F3CF3CF0010E3C263C506C0FD96EDA6AE3
:107CB000DF5010EC3AF0020E3D6E860E3C6E990ECF
:107CC000E82EFED73C2EFCD73D2EFAD700F027D762
:107CD0006451D8A441D0040E4418D8B43DD0000E4D
:107CE000676F010E666F18D06651020DF3506C0F6E
:107CF000D96EDA6ADF50106E6651020DF3CF3CF098
:107D0000010E3C263C506C0FD96EDA6ADF50AEECA7
:107D100039F00001664B672BAC513C6E3D6A3C501C
:107D2000665D6751800A3E6E3D50800A3E58D8A07D
:107D3000DBD7070E156EDA0E166E7F0E176E030E6A
:107D4000CCEC38F0080E156EE50E166E7F0E176E31
:107D5000040ECCEC38F0E3D66451D8A4E0D6040E7F
:107D60004418D8A4DCD6000E696F000E686F18D0D6
:107D70006851020DF3506C0FD96EDA6ADF50106E45
:107D80006851020DF3CF3CF0010E3C263C506C0FC5
:107D9000D96EDA6ADF50AEEC39F00001684B692B1E
:107DA000AC513C6E3D6A3C50685D6951800A3E6E44
:107DB0003D50800A3E58D8A0DBD7070E156EDA0E6C
:107DC000166E7F0E176E030ECCEC38F0080E156E93
:107DD000F60E166E7F0E176E040ECCEC38F09FD6A2
:107DE00000000000000000005F0000000700070026
:107DF000147F147F14242A7F2A1223130864623606
:107E0000495522500005030000001C22410000419A
:107E1000221C00082A1C2A0808083E0808005030C6
:107E2000000008080808080030300000201008048E
:107E3000023E5149453E00427F4000426151494661
:107E40002141454B311814127F1027454545393CD7
:107E50004A494930017109050336494949360649FD
:107E600049291E006C6C0000005636000000081402
:107E70002241001414140041221408000201510987
:107E800006324979413E7E1111117E7F49494936BA
:107E90003E414141227F4141221C7F494949417F66
:107EA000090901013E414151327F0808087F004124
:107EB0007F41002040413F017F081422417F404024
:107EC00040407F0204027F7F0408107F3E41414111
:107ED0003E7F090909063E4151215E7F0919294665
:107EE000464949493101017F01013F4040403F1F60
:107EF0002040201F7F2018207F6314081463030490
:107F0000780403615149454300007F414102040860
:107F1000102041417F000004020102044040404023
:107F200040000102040020545454787F48444438EF
:107F30003844444420384444487F38545454180842
:107F40007E090102081454543C7F0804047800445C
:107F50007D40002040443D00007F10284400417FC8
:107F600040007C041804787C0804047838444444B5
:107F7000387C14141408081414187C7C08040408B1
:107F80004854545420043F4440203C4040207C1C32
:107F90002040201C3C4030403C44281028440C50D9
:107FA00050503C4464544C44000836410000007F6B
:107FB0000000004136080008082A1C08081C2A088E
:107FC000080800AA00080038383800000000000047
:107FD0000000000000307078743147616D657220D8
:107FE0004F76657200596F75204C6F737400617025
:0F7FF000706C65733A00596F7520576F6E000003
:020000040030CA
:0E000000FF021900FFA580FF0FC00FE00F40A8
:00000001FF
